{"abi":[{"type":"function","name":"executeReactiveTrigger","inputs":[{"name":"intentId","type":"bytes32","internalType":"bytes32"},{"name":"observedOut","type":"uint256","internalType":"uint256"},{"name":"runtimeExitMinOut","type":"uint256","internalType":"uint256"}],"outputs":[],"stateMutability":"nonpayable"},{"type":"function","name":"getActualPositionSize","inputs":[{"name":"intentId","type":"bytes32","internalType":"bytes32"}],"outputs":[{"name":"","type":"uint256","internalType":"uint256"}],"stateMutability":"view"},{"type":"function","name":"getInvestmentIntent","inputs":[{"name":"intentId","type":"bytes32","internalType":"bytes32"}],"outputs":[{"name":"","type":"tuple","internalType":"struct IReactiveInvestmentCompiler.InvestmentIntent","components":[{"name":"owner","type":"address","internalType":"address"},{"name":"inputToken","type":"address","internalType":"address"},{"name":"outputToken","type":"address","internalType":"address"},{"name":"plannedEntrySize","type":"uint256","internalType":"uint256"},{"name":"entryMinOut","type":"uint256","internalType":"uint256"},{"name":"exitMinOutFloor","type":"uint256","internalType":"uint256"}]}],"stateMutability":"view"},{"type":"function","name":"getPositionState","inputs":[{"name":"intentId","type":"bytes32","internalType":"bytes32"}],"outputs":[{"name":"","type":"uint8","internalType":"enum IReactiveInvestmentCompiler.PositionState"}],"stateMutability":"view"},{"type":"function","name":"registerInvestmentIntent","inputs":[{"name":"intentId","type":"bytes32","internalType":"bytes32"},{"name":"intent","type":"tuple","internalType":"struct IReactiveInvestmentCompiler.InvestmentIntent","components":[{"name":"owner","type":"address","internalType":"address"},{"name":"inputToken","type":"address","internalType":"address"},{"name":"outputToken","type":"address","internalType":"address"},{"name":"plannedEntrySize","type":"uint256","internalType":"uint256"},{"name":"entryMinOut","type":"uint256","internalType":"uint256"},{"name":"exitMinOutFloor","type":"uint256","internalType":"uint256"}]}],"outputs":[],"stateMutability":"nonpayable"},{"type":"event","name":"InvestmentIntentRegistered","inputs":[{"name":"intentId","type":"bytes32","indexed":true,"internalType":"bytes32"},{"name":"owner","type":"address","indexed":true,"internalType":"address"}],"anonymous":false},{"type":"event","name":"InvestmentStateAdvanced","inputs":[{"name":"intentId","type":"bytes32","indexed":true,"internalType":"bytes32"},{"name":"fromState","type":"uint8","indexed":false,"internalType":"enum IReactiveInvestmentCompiler.PositionState"},{"name":"toState","type":"uint8","indexed":false,"internalType":"enum IReactiveInvestmentCompiler.PositionState"},{"name":"observedOut","type":"uint256","indexed":false,"internalType":"uint256"},{"name":"actualPositionSize","type":"uint256","indexed":false,"internalType":"uint256"}],"anonymous":false},{"type":"error","name":"ActualPositionSizeNotRecorded","inputs":[{"name":"intentId","type":"bytes32","internalType":"bytes32"}]},{"type":"error","name":"ClosedIntentCannotExecute","inputs":[{"name":"intentId","type":"bytes32","internalType":"bytes32"}]},{"type":"error","name":"EntryConstraintViolation","inputs":[{"name":"intentId","type":"bytes32","internalType":"bytes32"},{"name":"observedOut","type":"uint256","internalType":"uint256"},{"name":"entryMinOut","type":"uint256","internalType":"uint256"}]},{"type":"error","name":"ExitConstraintViolation","inputs":[{"name":"intentId","type":"bytes32","internalType":"bytes32"},{"name":"observedOut","type":"uint256","internalType":"uint256"},{"name":"runtimeExitMinOut","type":"uint256","internalType":"uint256"}]},{"type":"error","name":"IntentAlreadyRegistered","inputs":[{"name":"intentId","type":"bytes32","internalType":"bytes32"}]},{"type":"error","name":"IntentNotRegistered","inputs":[{"name":"intentId","type":"bytes32","internalType":"bytes32"}]},{"type":"error","name":"RuntimeExitMinOutTooLow","inputs":[{"name":"intentId","type":"bytes32","internalType":"bytes32"},{"name":"runtimeExitMinOut","type":"uint256","internalType":"uint256"},{"name":"exitMinOutFloor","type":"uint256","internalType":"uint256"}]}],"bytecode":{"object":"0x6080604052348015600e575f5ffd5b50610fb98061001c5f395ff3fe608060405234801561000f575f5ffd5b5060043610610055575f3560e01c8063032fdff9146100595780630d8c517e146100895780635c6dd2b0146100b95780635d64006b146100d55780637c98636e146100f1575b5f5ffd5b610073600480360381019061006e9190610a98565b610121565b6040516100809190610adb565b60405180910390f35b6100a3600480360381019061009e9190610a98565b610194565b6040516100b09190610bbb565b60405180910390f35b6100d360048036038101906100ce9190610bfe565b610333565b005b6100ef60048036038101906100ea9190610c70565b610465565b005b61010b60048036038101906101069190610a98565b6106c8565b6040516101189190610d21565b60405180910390f35b5f5f5f5f8481526020019081526020015f209050806008015f9054906101000a900460ff1661018757826040517f4257684800000000000000000000000000000000000000000000000000000000815260040161017e9190610d49565b60405180910390fd5b8060070154915050919050565b61019c6109e6565b5f5f5f8481526020019081526020015f209050806008015f9054906101000a900460ff1661020157826040517f425768480000000000000000000000000000000000000000000000000000000081526004016101f89190610d49565b60405180910390fd5b805f016040518060c00160405290815f82015f9054906101000a900473ffffffffffffffffffffffffffffffffffffffff1673ffffffffffffffffffffffffffffffffffffffff1673ffffffffffffffffffffffffffffffffffffffff168152602001600182015f9054906101000a900473ffffffffffffffffffffffffffffffffffffffff1673ffffffffffffffffffffffffffffffffffffffff1673ffffffffffffffffffffffffffffffffffffffff168152602001600282015f9054906101000a900473ffffffffffffffffffffffffffffffffffffffff1673ffffffffffffffffffffffffffffffffffffffff1673ffffffffffffffffffffffffffffffffffffffff1681526020016003820154815260200160048201548152602001600582015481525050915050919050565b5f5f5f8581526020019081526020015f209050806008015f9054906101000a900460ff1661039857836040517f4257684800000000000000000000000000000000000000000000000000000000815260040161038f9190610d49565b60405180910390fd5b5f816006015f9054906101000a900460ff1690506002808111156103bf576103be610cae565b5b8160028111156103d2576103d1610cae565b5b0361041457846040517f88dc570600000000000000000000000000000000000000000000000000000000815260040161040b9190610d49565b60405180910390fd5b5f600281111561042757610426610cae565b5b81600281111561043a57610439610cae565b5b036104515761044a828686610747565b5050610460565b61045d82868686610876565b50505b505050565b5f5f8381526020019081526020015f206008015f9054906101000a900460ff16156104c757816040517f1a31066d0000000000000000000000000000000000000000000000000000000081526004016104be9190610d49565b60405180910390fd5b6040518060800160405280828036038101906104e39190610eb5565b81526020015f60028111156104fb576104fa610cae565b5b81526020015f8152602001600115158152505f5f8481526020019081526020015f205f820151815f015f820151815f015f6101000a81548173ffffffffffffffffffffffffffffffffffffffff021916908373ffffffffffffffffffffffffffffffffffffffff1602179055506020820151816001015f6101000a81548173ffffffffffffffffffffffffffffffffffffffff021916908373ffffffffffffffffffffffffffffffffffffffff1602179055506040820151816002015f6101000a81548173ffffffffffffffffffffffffffffffffffffffff021916908373ffffffffffffffffffffffffffffffffffffffff160217905550606082015181600301556080820151816004015560a0820151816005015550506020820151816006015f6101000a81548160ff0219169083600281111561063e5761063d610cae565b5b0217905550604082015181600701556060820151816008015f6101000a81548160ff021916908315150217905550905050805f0160208101906106819190610ee0565b73ffffffffffffffffffffffffffffffffffffffff16827fabc07e5d65fed13232ad8275295c07cd672c5e88dfdb7a0ac3e59f0f88c5b82060405160405180910390a35050565b5f5f5f5f8481526020019081526020015f209050806008015f9054906101000a900460ff1661072e57826040517f425768480000000000000000000000000000000000000000000000000000000081526004016107259190610d49565b60405180910390fd5b806006015f9054906101000a900460ff16915050919050565b825f016004015481101561079c578181845f01600401546040517fe21c661f00000000000000000000000000000000000000000000000000000000815260040161079393929190610f0b565b60405180910390fd5b8083600701819055505f8360070154036107ed57816040517f8c353fe70000000000000000000000000000000000000000000000000000000081526004016107e49190610d49565b60405180910390fd5b5f836006015f9054906101000a900460ff1690506001846006015f6101000a81548160ff0219169083600281111561082857610827610cae565b5b0217905550827f1bf0bd2ea7d73dbaf1d4efbf0aff853a94e85e95eb5b9cbeae6b26e04c8e942f8260018588600701546040516108689493929190610f40565b60405180910390a250505050565b835f01600501548110156108cb578281855f01600501546040517f2a789e0e0000000000000000000000000000000000000000000000000000000081526004016108c293929190610f0b565b60405180910390fd5b80821015610914578282826040517f0a239e9900000000000000000000000000000000000000000000000000000000815260040161090b93929190610f0b565b60405180910390fd5b5f84600701540361095c57826040517f8c353fe70000000000000000000000000000000000000000000000000000000081526004016109539190610d49565b60405180910390fd5b5f846006015f9054906101000a900460ff1690506002856006015f6101000a81548160ff0219169083600281111561099757610996610cae565b5b0217905550837f1bf0bd2ea7d73dbaf1d4efbf0aff853a94e85e95eb5b9cbeae6b26e04c8e942f8260028689600701546040516109d79493929190610f40565b60405180910390a25050505050565b6040518060c001604052805f73ffffffffffffffffffffffffffffffffffffffff1681526020015f73ffffffffffffffffffffffffffffffffffffffff1681526020015f73ffffffffffffffffffffffffffffffffffffffff1681526020015f81526020015f81526020015f81525090565b5f604051905090565b5f5ffd5b5f819050919050565b610a7781610a65565b8114610a81575f5ffd5b50565b5f81359050610a9281610a6e565b92915050565b5f60208284031215610aad57610aac610a61565b5b5f610aba84828501610a84565b91505092915050565b5f819050919050565b610ad581610ac3565b82525050565b5f602082019050610aee5f830184610acc565b92915050565b5f73ffffffffffffffffffffffffffffffffffffffff82169050919050565b5f610b1d82610af4565b9050919050565b610b2d81610b13565b82525050565b610b3c81610ac3565b82525050565b60c082015f820151610b565f850182610b24565b506020820151610b696020850182610b24565b506040820151610b7c6040850182610b24565b506060820151610b8f6060850182610b33565b506080820151610ba26080850182610b33565b5060a0820151610bb560a0850182610b33565b50505050565b5f60c082019050610bce5f830184610b42565b92915050565b610bdd81610ac3565b8114610be7575f5ffd5b50565b5f81359050610bf881610bd4565b92915050565b5f5f5f60608486031215610c1557610c14610a61565b5b5f610c2286828701610a84565b9350506020610c3386828701610bea565b9250506040610c4486828701610bea565b9150509250925092565b5f5ffd5b5f60c08284031215610c6757610c66610c4e565b5b81905092915050565b5f5f60e08385031215610c8657610c85610a61565b5b5f610c9385828601610a84565b9250506020610ca485828601610c52565b9150509250929050565b7f4e487b71000000000000000000000000000000000000000000000000000000005f52602160045260245ffd5b60038110610cec57610ceb610cae565b5b50565b5f819050610cfc82610cdb565b919050565b5f610d0b82610cef565b9050919050565b610d1b81610d01565b82525050565b5f602082019050610d345f830184610d12565b92915050565b610d4381610a65565b82525050565b5f602082019050610d5c5f830184610d3a565b92915050565b5f5ffd5b5f601f19601f8301169050919050565b7f4e487b71000000000000000000000000000000000000000000000000000000005f52604160045260245ffd5b610dac82610d66565b810181811067ffffffffffffffff82111715610dcb57610dca610d76565b5b80604052505050565b5f610ddd610a58565b9050610de98282610da3565b919050565b610df781610b13565b8114610e01575f5ffd5b50565b5f81359050610e1281610dee565b92915050565b5f60c08284031215610e2d57610e2c610d62565b5b610e3760c0610dd4565b90505f610e4684828501610e04565b5f830152506020610e5984828501610e04565b6020830152506040610e6d84828501610e04565b6040830152506060610e8184828501610bea565b6060830152506080610e9584828501610bea565b60808301525060a0610ea984828501610bea565b60a08301525092915050565b5f60c08284031215610eca57610ec9610a61565b5b5f610ed784828501610e18565b91505092915050565b5f60208284031215610ef557610ef4610a61565b5b5f610f0284828501610e04565b91505092915050565b5f606082019050610f1e5f830186610d3a565b610f2b6020830185610acc565b610f386040830184610acc565b949350505050565b5f608082019050610f535f830187610d12565b610f606020830186610d12565b610f6d6040830185610acc565b610f7a6060830184610acc565b9594505050505056fea26469706673582212206551a3896789db483afc997ee51a4400ad358484ce2ac3717aeb760bca1b837664736f6c63430008210033","linkReferences":{}},"methodIdentifiers":{"executeReactiveTrigger(bytes32,uint256,uint256)":"5c6dd2b0","getActualPositionSize(bytes32)":"032fdff9","getInvestmentIntent(bytes32)":"0d8c517e","getPositionState(bytes32)":"7c98636e","registerInvestmentIntent(bytes32,(address,address,address,uint256,uint256,uint256))":"5d64006b"},"id":0}