{"abi":[{"type":"constructor","inputs":[],"stateMutability":"nonpayable"},{"type":"function","name":"emergencyForceClose","inputs":[{"name":"intentId","type":"bytes32","internalType":"bytes32"},{"name":"maxSlippageBps","type":"uint256","internalType":"uint256"}],"outputs":[{"name":"emergencyExitMinOut","type":"uint256","internalType":"uint256"}],"stateMutability":"nonpayable"},{"type":"function","name":"executeReactiveTrigger","inputs":[{"name":"intentId","type":"bytes32","internalType":"bytes32"},{"name":"triggerType","type":"uint8","internalType":"enum IReactiveInvestmentCompiler.ReactiveTriggerType"},{"name":"observedOut","type":"uint256","internalType":"uint256"}],"outputs":[],"stateMutability":"nonpayable"},{"type":"function","name":"getActualPositionSize","inputs":[{"name":"intentId","type":"bytes32","internalType":"bytes32"}],"outputs":[{"name":"","type":"uint256","internalType":"uint256"}],"stateMutability":"view"},{"type":"function","name":"getInvestmentIntent","inputs":[{"name":"intentId","type":"bytes32","internalType":"bytes32"}],"outputs":[{"name":"","type":"tuple","internalType":"struct IReactiveInvestmentCompiler.InvestmentIntent","components":[{"name":"owner","type":"address","internalType":"address"},{"name":"inputToken","type":"address","internalType":"address"},{"name":"outputToken","type":"address","internalType":"address"},{"name":"plannedEntrySize","type":"uint256","internalType":"uint256"},{"name":"entryMinOut","type":"uint256","internalType":"uint256"},{"name":"entryValidUntil","type":"uint256","internalType":"uint256"},{"name":"maxGasPriceGwei","type":"uint256","internalType":"uint256"},{"name":"stopLossSlippageBps","type":"uint256","internalType":"uint256"},{"name":"takeProfitSlippageBps","type":"uint256","internalType":"uint256"}]}],"stateMutability":"view"},{"type":"function","name":"getPositionState","inputs":[{"name":"intentId","type":"bytes32","internalType":"bytes32"}],"outputs":[{"name":"","type":"uint8","internalType":"enum IReactiveInvestmentCompiler.PositionState"}],"stateMutability":"view"},{"type":"function","name":"isEmergencyAuthorizedRelayer","inputs":[{"name":"relayer","type":"address","internalType":"address"}],"outputs":[{"name":"","type":"bool","internalType":"bool"}],"stateMutability":"view"},{"type":"function","name":"owner","inputs":[],"outputs":[{"name":"","type":"address","internalType":"address"}],"stateMutability":"view"},{"type":"function","name":"registerInvestmentIntent","inputs":[{"name":"intentId","type":"bytes32","internalType":"bytes32"},{"name":"intent","type":"tuple","internalType":"struct IReactiveInvestmentCompiler.InvestmentIntent","components":[{"name":"owner","type":"address","internalType":"address"},{"name":"inputToken","type":"address","internalType":"address"},{"name":"outputToken","type":"address","internalType":"address"},{"name":"plannedEntrySize","type":"uint256","internalType":"uint256"},{"name":"entryMinOut","type":"uint256","internalType":"uint256"},{"name":"entryValidUntil","type":"uint256","internalType":"uint256"},{"name":"maxGasPriceGwei","type":"uint256","internalType":"uint256"},{"name":"stopLossSlippageBps","type":"uint256","internalType":"uint256"},{"name":"takeProfitSlippageBps","type":"uint256","internalType":"uint256"}]}],"outputs":[],"stateMutability":"nonpayable"},{"type":"function","name":"setEmergencyAuthorizedRelayer","inputs":[{"name":"relayer","type":"address","internalType":"address"},{"name":"authorized","type":"bool","internalType":"bool"}],"outputs":[],"stateMutability":"nonpayable"},{"type":"event","name":"EmergencyForceCloseExecuted","inputs":[{"name":"intentId","type":"bytes32","indexed":true,"internalType":"bytes32"},{"name":"caller","type":"address","indexed":true,"internalType":"address"},{"name":"actualPositionSize","type":"uint256","indexed":false,"internalType":"uint256"},{"name":"maxSlippageBps","type":"uint256","indexed":false,"internalType":"uint256"},{"name":"emergencyExitMinOut","type":"uint256","indexed":false,"internalType":"uint256"}],"anonymous":false},{"type":"event","name":"EmergencyRelayerAuthorizationUpdated","inputs":[{"name":"relayer","type":"address","indexed":true,"internalType":"address"},{"name":"authorized","type":"bool","indexed":false,"internalType":"bool"}],"anonymous":false},{"type":"event","name":"InvestmentIntentRegistered","inputs":[{"name":"intentId","type":"bytes32","indexed":true,"internalType":"bytes32"},{"name":"owner","type":"address","indexed":true,"internalType":"address"}],"anonymous":false},{"type":"event","name":"InvestmentStateAdvanced","inputs":[{"name":"intentId","type":"bytes32","indexed":true,"internalType":"bytes32"},{"name":"fromState","type":"uint8","indexed":false,"internalType":"enum IReactiveInvestmentCompiler.PositionState"},{"name":"toState","type":"uint8","indexed":false,"internalType":"enum IReactiveInvestmentCompiler.PositionState"},{"name":"observedOut","type":"uint256","indexed":false,"internalType":"uint256"},{"name":"actualPositionSize","type":"uint256","indexed":false,"internalType":"uint256"}],"anonymous":false},{"type":"error","name":"ActualPositionSizeNotRecorded","inputs":[{"name":"intentId","type":"bytes32","internalType":"bytes32"}]},{"type":"error","name":"ClosedIntentCannotExecute","inputs":[{"name":"intentId","type":"bytes32","internalType":"bytes32"}]},{"type":"error","name":"EmergencyForceCloseOnlyActivePosition","inputs":[{"name":"intentId","type":"bytes32","internalType":"bytes32"},{"name":"currentState","type":"uint8","internalType":"enum IReactiveInvestmentCompiler.PositionState"}]},{"type":"error","name":"EmergencySlippageBpsOutOfRange","inputs":[{"name":"intentId","type":"bytes32","internalType":"bytes32"},{"name":"maxSlippageBps","type":"uint256","internalType":"uint256"}]},{"type":"error","name":"EntryConstraintViolation","inputs":[{"name":"intentId","type":"bytes32","internalType":"bytes32"},{"name":"observedOut","type":"uint256","internalType":"uint256"},{"name":"entryMinOut","type":"uint256","internalType":"uint256"}]},{"type":"error","name":"EntryValidityExpired","inputs":[{"name":"intentId","type":"bytes32","internalType":"bytes32"},{"name":"blockTimestamp","type":"uint256","internalType":"uint256"},{"name":"entryValidUntil","type":"uint256","internalType":"uint256"}]},{"type":"error","name":"ExitConstraintViolation","inputs":[{"name":"intentId","type":"bytes32","internalType":"bytes32"},{"name":"observedOut","type":"uint256","internalType":"uint256"},{"name":"derivedExitMinOut","type":"uint256","internalType":"uint256"}]},{"type":"error","name":"IntentAlreadyRegistered","inputs":[{"name":"intentId","type":"bytes32","internalType":"bytes32"}]},{"type":"error","name":"IntentNotRegistered","inputs":[{"name":"intentId","type":"bytes32","internalType":"bytes32"}]},{"type":"error","name":"InvalidTriggerForState","inputs":[{"name":"intentId","type":"bytes32","internalType":"bytes32"},{"name":"triggerType","type":"uint8","internalType":"enum IReactiveInvestmentCompiler.ReactiveTriggerType"},{"name":"currentState","type":"uint8","internalType":"enum IReactiveInvestmentCompiler.PositionState"}]},{"type":"error","name":"MaxGasPriceExceeded","inputs":[{"name":"intentId","type":"bytes32","internalType":"bytes32"},{"name":"txGasPriceWei","type":"uint256","internalType":"uint256"},{"name":"maxGasPriceGwei","type":"uint256","internalType":"uint256"}]},{"type":"error","name":"SlippageBpsOutOfRange","inputs":[{"name":"intentId","type":"bytes32","internalType":"bytes32"},{"name":"slippageBps","type":"uint256","internalType":"uint256"}]},{"type":"error","name":"UnauthorizedEmergencyForceCloseCaller","inputs":[{"name":"intentId","type":"bytes32","internalType":"bytes32"},{"name":"caller","type":"address","internalType":"address"}]},{"type":"error","name":"UnauthorizedRelayerConfigCaller","inputs":[{"name":"caller","type":"address","internalType":"address"}]},{"type":"error","name":"ZeroAddressRelayer","inputs":[]}],"bytecode":{"object":"0x60a0604052348015600e575f5ffd5b503373ffffffffffffffffffffffffffffffffffffffff1660808173ffffffffffffffffffffffffffffffffffffffff1681525050608051611d496100695f395f81816104fc01528181610a6b01526112300152611d495ff3fe608060405234801561000f575f5ffd5b5060043610610091575f3560e01c80638da5cb5b116100645780638da5cb5b1461015557806399f6111e14610173578063a5a3dbe71461018f578063dc5d7e8d146101bf578063f47cc17d146101db57610091565b8063032fdff9146100955780630d8c517e146100c55780635e1908fe146100f55780637c98636e14610125575b5f5ffd5b6100af60048036038101906100aa91906113dc565b6101f7565b6040516100bc919061141f565b60405180910390f35b6100df60048036038101906100da91906113dc565b61026a565b6040516100ec919061153b565b60405180910390f35b61010f600480360381019061010a919061157f565b610428565b60405161011c91906115c4565b60405180910390f35b61013f600480360381019061013a91906113dc565b61047a565b60405161014c9190611650565b60405180910390f35b61015d6104f9565b60405161016a9190611678565b60405180910390f35b61018d600480360381019061018891906116de565b610520565b005b6101a960048036038101906101a4919061172e565b6107c9565b6040516101b6919061141f565b60405180910390f35b6101d960048036038101906101d49190611796565b610a69565b005b6101f560048036038101906101f091906117f7565b610c04565b005b5f5f5f5f8481526020019081526020015f20905080600b015f9054906101000a900460ff1661025d57826040517f425768480000000000000000000000000000000000000000000000000000000081526004016102549190611845565b60405180910390fd5b80600a0154915050919050565b610272611317565b5f5f5f8481526020019081526020015f20905080600b015f9054906101000a900460ff166102d757826040517f425768480000000000000000000000000000000000000000000000000000000081526004016102ce9190611845565b60405180910390fd5b805f01604051806101200160405290815f82015f9054906101000a900473ffffffffffffffffffffffffffffffffffffffff1673ffffffffffffffffffffffffffffffffffffffff1673ffffffffffffffffffffffffffffffffffffffff168152602001600182015f9054906101000a900473ffffffffffffffffffffffffffffffffffffffff1673ffffffffffffffffffffffffffffffffffffffff1673ffffffffffffffffffffffffffffffffffffffff168152602001600282015f9054906101000a900473ffffffffffffffffffffffffffffffffffffffff1673ffffffffffffffffffffffffffffffffffffffff1673ffffffffffffffffffffffffffffffffffffffff1681526020016003820154815260200160048201548152602001600582015481526020016006820154815260200160078201548152602001600882015481525050915050919050565b5f60015f8373ffffffffffffffffffffffffffffffffffffffff1673ffffffffffffffffffffffffffffffffffffffff1681526020019081526020015f205f9054906101000a900460ff169050919050565b5f5f5f5f8481526020019081526020015f20905080600b015f9054906101000a900460ff166104e057826040517f425768480000000000000000000000000000000000000000000000000000000081526004016104d79190611845565b60405180910390fd5b806009015f9054906101000a900460ff16915050919050565b5f7f0000000000000000000000000000000000000000000000000000000000000000905090565b5f5f5f8581526020019081526020015f20905080600b015f9054906101000a900460ff1661058557836040517f4257684800000000000000000000000000000000000000000000000000000000815260040161057c9190611845565b60405180910390fd5b5f816009015f9054906101000a900460ff1690506002808111156105ac576105ab6115dd565b5b8160028111156105bf576105be6115dd565b5b0361060157846040517f88dc57060000000000000000000000000000000000000000000000000000000081526004016105f89190611845565b60405180910390fd5b5f6002811115610614576106136115dd565b5b816002811115610627576106266115dd565b5b036106aa575f600281111561063f5761063e6115dd565b5b846002811115610652576106516115dd565b5b14610698578484826040517fc8fcb6ba00000000000000000000000000000000000000000000000000000000815260040161068f939291906118a4565b60405180910390fd5b6106a3828685610e86565b50506107c4565b5f60028111156106bd576106bc6115dd565b5b8460028111156106d0576106cf6115dd565b5b03610716578484826040517fc8fcb6ba00000000000000000000000000000000000000000000000000000000815260040161070d939291906118a4565b60405180910390fd5b6001600281111561072a576107296115dd565b5b84600281111561073d5761073c6115dd565b5b1415801561076f5750600280811115610759576107586115dd565b5b84600281111561076c5761076b6115dd565b5b14155b156107b5578484826040517fc8fcb6ba0000000000000000000000000000000000000000000000000000000081526004016107ac939291906118a4565b60405180910390fd5b6107c182868686611073565b50505b505050565b5f5f5f5f8581526020019081526020015f20905080600b015f9054906101000a900460ff1661082f57836040517f425768480000000000000000000000000000000000000000000000000000000081526004016108269190611845565b60405180910390fd5b6108383361122d565b61087b5783336040517f4132d4270000000000000000000000000000000000000000000000000000000081526004016108729291906118d9565b60405180910390fd5b5f816009015f9054906101000a900460ff169050600160028111156108a3576108a26115dd565b5b8160028111156108b6576108b56115dd565b5b146108fa5784816040517f3047d6bb0000000000000000000000000000000000000000000000000000000081526004016108f1929190611900565b60405180910390fd5b6127108411156109435784846040517fa8ad6af400000000000000000000000000000000000000000000000000000000815260040161093a929190611927565b60405180910390fd5b5f82600a01540361098b57846040517f8c353fe70000000000000000000000000000000000000000000000000000000081526004016109829190611845565b60405180910390fd5b6002826009015f6101000a81548160ff021916908360028111156109b2576109b16115dd565b5b02179055506109c582600a0154856112d5565b9250847f1bf0bd2ea7d73dbaf1d4efbf0aff853a94e85e95eb5b9cbeae6b26e04c8e942f8260025f86600a0154604051610a029493929190611990565b60405180910390a23373ffffffffffffffffffffffffffffffffffffffff16857ff40071a96dd2f7d667c3eb2136c9f236377383fd2dcda891f5b0d69477304d6d84600a01548787604051610a59939291906119d3565b60405180910390a3505092915050565b7f000000000000000000000000000000000000000000000000000000000000000073ffffffffffffffffffffffffffffffffffffffff163373ffffffffffffffffffffffffffffffffffffffff1614610af957336040517f1ef1c704000000000000000000000000000000000000000000000000000000008152600401610af09190611678565b60405180910390fd5b5f73ffffffffffffffffffffffffffffffffffffffff168273ffffffffffffffffffffffffffffffffffffffff1603610b5e576040517f447924f600000000000000000000000000000000000000000000000000000000815260040160405180910390fd5b8060015f8473ffffffffffffffffffffffffffffffffffffffff1673ffffffffffffffffffffffffffffffffffffffff1681526020019081526020015f205f6101000a81548160ff0219169083151502179055508173ffffffffffffffffffffffffffffffffffffffff167f0b744422d82ac938eda36e0205a673742a8d6ad13b83abc15a759d09b4118fb082604051610bf891906115c4565b60405180910390a25050565b5f5f8381526020019081526020015f20600b015f9054906101000a900460ff1615610c6657816040517f1a31066d000000000000000000000000000000000000000000000000000000008152600401610c5d9190611845565b60405180910390fd5b604051806080016040528082803603810190610c829190611b71565b81526020015f6002811115610c9a57610c996115dd565b5b81526020015f8152602001600115158152505f5f8481526020019081526020015f205f820151815f015f820151815f015f6101000a81548173ffffffffffffffffffffffffffffffffffffffff021916908373ffffffffffffffffffffffffffffffffffffffff1602179055506020820151816001015f6101000a81548173ffffffffffffffffffffffffffffffffffffffff021916908373ffffffffffffffffffffffffffffffffffffffff1602179055506040820151816002015f6101000a81548173ffffffffffffffffffffffffffffffffffffffff021916908373ffffffffffffffffffffffffffffffffffffffff160217905550606082015181600301556080820151816004015560a0820151816005015560c0820151816006015560e08201518160070155610100820151816008015550506020820151816009015f6101000a81548160ff02191690836002811115610dfc57610dfb6115dd565b5b0217905550604082015181600a0155606082015181600b015f6101000a81548160ff021916908315150217905550905050805f016020810190610e3f919061157f565b73ffffffffffffffffffffffffffffffffffffffff16827fabc07e5d65fed13232ad8275295c07cd672c5e88dfdb7a0ac3e59f0f88c5b82060405160405180910390a35050565b825f0160050154421115610edb578142845f01600501546040517fadda4a16000000000000000000000000000000000000000000000000000000008152600401610ed293929190611b9d565b60405180910390fd5b5f633b9aca00845f0160060154610ef29190611bff565b9050803a1115610f4357823a855f01600601546040517fa39f48f4000000000000000000000000000000000000000000000000000000008152600401610f3a93929190611b9d565b60405180910390fd5b835f0160040154821015610f98578282855f01600401546040517fe21c661f000000000000000000000000000000000000000000000000000000008152600401610f8f93929190611b9d565b60405180910390fd5b8184600a01819055505f84600a015403610fe957826040517f8c353fe7000000000000000000000000000000000000000000000000000000008152600401610fe09190611845565b60405180910390fd5b5f846009015f9054906101000a900460ff1690506001856009015f6101000a81548160ff02191690836002811115611024576110236115dd565b5b0217905550837f1bf0bd2ea7d73dbaf1d4efbf0aff853a94e85e95eb5b9cbeae6b26e04c8e942f8260018689600a01546040516110649493929190611c40565b60405180910390a25050505050565b5f84600a0154036110bb57826040517f8c353fe70000000000000000000000000000000000000000000000000000000081526004016110b29190611845565b60405180910390fd5b5f600160028111156110d0576110cf6115dd565b5b8360028111156110e3576110e26115dd565b5b146110f457845f01600801546110fc565b845f01600701545b90506127108111156111475783816040517f5001102800000000000000000000000000000000000000000000000000000000815260040161113e929190611927565b60405180910390fd5b5f61115686600a0154836112e8565b9050808310156111a1578483826040517f0a239e9900000000000000000000000000000000000000000000000000000000815260040161119893929190611b9d565b60405180910390fd5b5f866009015f9054906101000a900460ff1690506002876009015f6101000a81548160ff021916908360028111156111dc576111db6115dd565b5b0217905550857f1bf0bd2ea7d73dbaf1d4efbf0aff853a94e85e95eb5b9cbeae6b26e04c8e942f826002878b600a015460405161121c9493929190611c40565b60405180910390a250505050505050565b5f7f000000000000000000000000000000000000000000000000000000000000000073ffffffffffffffffffffffffffffffffffffffff168273ffffffffffffffffffffffffffffffffffffffff1614806112ce575060015f8373ffffffffffffffffffffffffffffffffffffffff1673ffffffffffffffffffffffffffffffffffffffff1681526020019081526020015f205f9054906101000a900460ff165b9050919050565b5f6112e083836112e8565b905092915050565b5f612710826127106112fa9190611c83565b846113059190611bff565b61130f9190611ce3565b905092915050565b6040518061012001604052805f73ffffffffffffffffffffffffffffffffffffffff1681526020015f73ffffffffffffffffffffffffffffffffffffffff1681526020015f73ffffffffffffffffffffffffffffffffffffffff1681526020015f81526020015f81526020015f81526020015f81526020015f81526020015f81525090565b5f604051905090565b5f5ffd5b5f819050919050565b6113bb816113a9565b81146113c5575f5ffd5b50565b5f813590506113d6816113b2565b92915050565b5f602082840312156113f1576113f06113a5565b5b5f6113fe848285016113c8565b91505092915050565b5f819050919050565b61141981611407565b82525050565b5f6020820190506114325f830184611410565b92915050565b5f73ffffffffffffffffffffffffffffffffffffffff82169050919050565b5f61146182611438565b9050919050565b61147181611457565b82525050565b61148081611407565b82525050565b61012082015f82015161149b5f850182611468565b5060208201516114ae6020850182611468565b5060408201516114c16040850182611468565b5060608201516114d46060850182611477565b5060808201516114e76080850182611477565b5060a08201516114fa60a0850182611477565b5060c082015161150d60c0850182611477565b5060e082015161152060e0850182611477565b50610100820151611535610100850182611477565b50505050565b5f6101208201905061154f5f830184611486565b92915050565b61155e81611457565b8114611568575f5ffd5b50565b5f8135905061157981611555565b92915050565b5f60208284031215611594576115936113a5565b5b5f6115a18482850161156b565b91505092915050565b5f8115159050919050565b6115be816115aa565b82525050565b5f6020820190506115d75f8301846115b5565b92915050565b7f4e487b71000000000000000000000000000000000000000000000000000000005f52602160045260245ffd5b6003811061161b5761161a6115dd565b5b50565b5f81905061162b8261160a565b919050565b5f61163a8261161e565b9050919050565b61164a81611630565b82525050565b5f6020820190506116635f830184611641565b92915050565b61167281611457565b82525050565b5f60208201905061168b5f830184611669565b92915050565b6003811061169d575f5ffd5b50565b5f813590506116ae81611691565b92915050565b6116bd81611407565b81146116c7575f5ffd5b50565b5f813590506116d8816116b4565b92915050565b5f5f5f606084860312156116f5576116f46113a5565b5b5f611702868287016113c8565b9350506020611713868287016116a0565b9250506040611724868287016116ca565b9150509250925092565b5f5f60408385031215611744576117436113a5565b5b5f611751858286016113c8565b9250506020611762858286016116ca565b9150509250929050565b611775816115aa565b811461177f575f5ffd5b50565b5f813590506117908161176c565b92915050565b5f5f604083850312156117ac576117ab6113a5565b5b5f6117b98582860161156b565b92505060206117ca85828601611782565b9150509250929050565b5f5ffd5b5f61012082840312156117ee576117ed6117d4565b5b81905092915050565b5f5f610140838503121561180e5761180d6113a5565b5b5f61181b858286016113c8565b925050602061182c858286016117d8565b9150509250929050565b61183f816113a9565b82525050565b5f6020820190506118585f830184611836565b92915050565b6003811061186f5761186e6115dd565b5b50565b5f81905061187f8261185e565b919050565b5f61188e82611872565b9050919050565b61189e81611884565b82525050565b5f6060820190506118b75f830186611836565b6118c46020830185611895565b6118d16040830184611641565b949350505050565b5f6040820190506118ec5f830185611836565b6118f96020830184611669565b9392505050565b5f6040820190506119135f830185611836565b6119206020830184611641565b9392505050565b5f60408201905061193a5f830185611836565b6119476020830184611410565b9392505050565b5f819050919050565b5f819050919050565b5f61197a6119756119708461194e565b611957565b611407565b9050919050565b61198a81611960565b82525050565b5f6080820190506119a35f830187611641565b6119b06020830186611641565b6119bd6040830185611981565b6119ca6060830184611410565b95945050505050565b5f6060820190506119e65f830186611410565b6119f36020830185611410565b611a006040830184611410565b949350505050565b5f5ffd5b5f601f19601f8301169050919050565b7f4e487b71000000000000000000000000000000000000000000000000000000005f52604160045260245ffd5b611a5282611a0c565b810181811067ffffffffffffffff82111715611a7157611a70611a1c565b5b80604052505050565b5f611a8361139c565b9050611a8f8282611a49565b919050565b5f6101208284031215611aaa57611aa9611a08565b5b611ab5610120611a7a565b90505f611ac48482850161156b565b5f830152506020611ad78482850161156b565b6020830152506040611aeb8482850161156b565b6040830152506060611aff848285016116ca565b6060830152506080611b13848285016116ca565b60808301525060a0611b27848285016116ca565b60a08301525060c0611b3b848285016116ca565b60c08301525060e0611b4f848285016116ca565b60e083015250610100611b64848285016116ca565b6101008301525092915050565b5f6101208284031215611b8757611b866113a5565b5b5f611b9484828501611a94565b91505092915050565b5f606082019050611bb05f830186611836565b611bbd6020830185611410565b611bca6040830184611410565b949350505050565b7f4e487b71000000000000000000000000000000000000000000000000000000005f52601160045260245ffd5b5f611c0982611407565b9150611c1483611407565b9250828202611c2281611407565b91508282048414831517611c3957611c38611bd2565b5b5092915050565b5f608082019050611c535f830187611641565b611c606020830186611641565b611c6d6040830185611410565b611c7a6060830184611410565b95945050505050565b5f611c8d82611407565b9150611c9883611407565b9250828203905081811115611cb057611caf611bd2565b5b92915050565b7f4e487b71000000000000000000000000000000000000000000000000000000005f52601260045260245ffd5b5f611ced82611407565b9150611cf883611407565b925082611d0857611d07611cb6565b5b82820490509291505056fea264697066735822122083e0d45db5433e43346c3836657bba83576efbf2fa5e48e7bc0089e9a019cb7c64736f6c63430008210033","linkReferences":{}},"methodIdentifiers":{"emergencyForceClose(bytes32,uint256)":"a5a3dbe7","executeReactiveTrigger(bytes32,uint8,uint256)":"99f6111e","getActualPositionSize(bytes32)":"032fdff9","getInvestmentIntent(bytes32)":"0d8c517e","getPositionState(bytes32)":"7c98636e","isEmergencyAuthorizedRelayer(address)":"5e1908fe","owner()":"8da5cb5b","registerInvestmentIntent(bytes32,(address,address,address,uint256,uint256,uint256,uint256,uint256,uint256))":"f47cc17d","setEmergencyAuthorizedRelayer(address,bool)":"dc5d7e8d"},"id":0}