{"abi":[{"type":"constructor","inputs":[],"stateMutability":"nonpayable"},{"type":"function","name":"emergencyForceClose","inputs":[{"name":"intentId","type":"bytes32","internalType":"bytes32"},{"name":"maxSlippageBps","type":"uint256","internalType":"uint256"}],"outputs":[{"name":"emergencyExitMinOut","type":"uint256","internalType":"uint256"}],"stateMutability":"nonpayable"},{"type":"function","name":"executeReactiveTrigger","inputs":[{"name":"intentId","type":"bytes32","internalType":"bytes32"},{"name":"observedOut","type":"uint256","internalType":"uint256"},{"name":"runtimeExitMinOut","type":"uint256","internalType":"uint256"}],"outputs":[],"stateMutability":"nonpayable"},{"type":"function","name":"getActualPositionSize","inputs":[{"name":"intentId","type":"bytes32","internalType":"bytes32"}],"outputs":[{"name":"","type":"uint256","internalType":"uint256"}],"stateMutability":"view"},{"type":"function","name":"getInvestmentIntent","inputs":[{"name":"intentId","type":"bytes32","internalType":"bytes32"}],"outputs":[{"name":"","type":"tuple","internalType":"struct IReactiveInvestmentCompiler.InvestmentIntent","components":[{"name":"owner","type":"address","internalType":"address"},{"name":"inputToken","type":"address","internalType":"address"},{"name":"outputToken","type":"address","internalType":"address"},{"name":"plannedEntrySize","type":"uint256","internalType":"uint256"},{"name":"entryMinOut","type":"uint256","internalType":"uint256"},{"name":"exitMinOutFloor","type":"uint256","internalType":"uint256"}]}],"stateMutability":"view"},{"type":"function","name":"getPositionState","inputs":[{"name":"intentId","type":"bytes32","internalType":"bytes32"}],"outputs":[{"name":"","type":"uint8","internalType":"enum IReactiveInvestmentCompiler.PositionState"}],"stateMutability":"view"},{"type":"function","name":"isEmergencyAuthorizedRelayer","inputs":[{"name":"relayer","type":"address","internalType":"address"}],"outputs":[{"name":"","type":"bool","internalType":"bool"}],"stateMutability":"view"},{"type":"function","name":"owner","inputs":[],"outputs":[{"name":"","type":"address","internalType":"address"}],"stateMutability":"view"},{"type":"function","name":"registerInvestmentIntent","inputs":[{"name":"intentId","type":"bytes32","internalType":"bytes32"},{"name":"intent","type":"tuple","internalType":"struct IReactiveInvestmentCompiler.InvestmentIntent","components":[{"name":"owner","type":"address","internalType":"address"},{"name":"inputToken","type":"address","internalType":"address"},{"name":"outputToken","type":"address","internalType":"address"},{"name":"plannedEntrySize","type":"uint256","internalType":"uint256"},{"name":"entryMinOut","type":"uint256","internalType":"uint256"},{"name":"exitMinOutFloor","type":"uint256","internalType":"uint256"}]}],"outputs":[],"stateMutability":"nonpayable"},{"type":"function","name":"setEmergencyAuthorizedRelayer","inputs":[{"name":"relayer","type":"address","internalType":"address"},{"name":"authorized","type":"bool","internalType":"bool"}],"outputs":[],"stateMutability":"nonpayable"},{"type":"event","name":"EmergencyForceCloseExecuted","inputs":[{"name":"intentId","type":"bytes32","indexed":true,"internalType":"bytes32"},{"name":"caller","type":"address","indexed":true,"internalType":"address"},{"name":"actualPositionSize","type":"uint256","indexed":false,"internalType":"uint256"},{"name":"maxSlippageBps","type":"uint256","indexed":false,"internalType":"uint256"},{"name":"emergencyExitMinOut","type":"uint256","indexed":false,"internalType":"uint256"}],"anonymous":false},{"type":"event","name":"EmergencyRelayerAuthorizationUpdated","inputs":[{"name":"relayer","type":"address","indexed":true,"internalType":"address"},{"name":"authorized","type":"bool","indexed":false,"internalType":"bool"}],"anonymous":false},{"type":"event","name":"InvestmentIntentRegistered","inputs":[{"name":"intentId","type":"bytes32","indexed":true,"internalType":"bytes32"},{"name":"owner","type":"address","indexed":true,"internalType":"address"}],"anonymous":false},{"type":"event","name":"InvestmentStateAdvanced","inputs":[{"name":"intentId","type":"bytes32","indexed":true,"internalType":"bytes32"},{"name":"fromState","type":"uint8","indexed":false,"internalType":"enum IReactiveInvestmentCompiler.PositionState"},{"name":"toState","type":"uint8","indexed":false,"internalType":"enum IReactiveInvestmentCompiler.PositionState"},{"name":"observedOut","type":"uint256","indexed":false,"internalType":"uint256"},{"name":"actualPositionSize","type":"uint256","indexed":false,"internalType":"uint256"}],"anonymous":false},{"type":"error","name":"ActualPositionSizeNotRecorded","inputs":[{"name":"intentId","type":"bytes32","internalType":"bytes32"}]},{"type":"error","name":"ClosedIntentCannotExecute","inputs":[{"name":"intentId","type":"bytes32","internalType":"bytes32"}]},{"type":"error","name":"EmergencyForceCloseOnlyActivePosition","inputs":[{"name":"intentId","type":"bytes32","internalType":"bytes32"},{"name":"currentState","type":"uint8","internalType":"enum IReactiveInvestmentCompiler.PositionState"}]},{"type":"error","name":"EmergencySlippageBpsOutOfRange","inputs":[{"name":"intentId","type":"bytes32","internalType":"bytes32"},{"name":"maxSlippageBps","type":"uint256","internalType":"uint256"}]},{"type":"error","name":"EntryConstraintViolation","inputs":[{"name":"intentId","type":"bytes32","internalType":"bytes32"},{"name":"observedOut","type":"uint256","internalType":"uint256"},{"name":"entryMinOut","type":"uint256","internalType":"uint256"}]},{"type":"error","name":"ExitConstraintViolation","inputs":[{"name":"intentId","type":"bytes32","internalType":"bytes32"},{"name":"observedOut","type":"uint256","internalType":"uint256"},{"name":"runtimeExitMinOut","type":"uint256","internalType":"uint256"}]},{"type":"error","name":"IntentAlreadyRegistered","inputs":[{"name":"intentId","type":"bytes32","internalType":"bytes32"}]},{"type":"error","name":"IntentNotRegistered","inputs":[{"name":"intentId","type":"bytes32","internalType":"bytes32"}]},{"type":"error","name":"RuntimeExitMinOutTooLow","inputs":[{"name":"intentId","type":"bytes32","internalType":"bytes32"},{"name":"runtimeExitMinOut","type":"uint256","internalType":"uint256"},{"name":"exitMinOutFloor","type":"uint256","internalType":"uint256"}]},{"type":"error","name":"UnauthorizedEmergencyForceCloseCaller","inputs":[{"name":"intentId","type":"bytes32","internalType":"bytes32"},{"name":"caller","type":"address","internalType":"address"}]},{"type":"error","name":"UnauthorizedRelayerConfigCaller","inputs":[{"name":"caller","type":"address","internalType":"address"}]},{"type":"error","name":"ZeroAddressRelayer","inputs":[]}],"bytecode":{"object":"0x60a0604052348015600e575f5ffd5b503373ffffffffffffffffffffffffffffffffffffffff1660808173ffffffffffffffffffffffffffffffffffffffff16815250506080516119486100695f395f818161087201528181610b380152610f7301526119485ff3fe608060405234801561000f575f5ffd5b5060043610610091575f3560e01c80635e1908fe116100645780635e1908fe1461012d5780637c98636e1461015d5780638da5cb5b1461018d578063a5a3dbe7146101ab578063dc5d7e8d146101db57610091565b8063032fdff9146100955780630d8c517e146100c55780635c6dd2b0146100f55780635d64006b14610111575b5f5ffd5b6100af60048036038101906100aa91906110f9565b6101f7565b6040516100bc919061113c565b60405180910390f35b6100df60048036038101906100da91906110f9565b61026a565b6040516100ec919061121c565b60405180910390f35b61010f600480360381019061010a919061125f565b610409565b005b61012b600480360381019061012691906112d1565b61053b565b005b61014760048036038101906101429190611339565b61079e565b604051610154919061137e565b60405180910390f35b610177600480360381019061017291906110f9565b6107f0565b604051610184919061140a565b60405180910390f35b61019561086f565b6040516101a29190611432565b60405180910390f35b6101c560048036038101906101c0919061144b565b610896565b6040516101d2919061113c565b60405180910390f35b6101f560048036038101906101f091906114b3565b610b36565b005b5f5f5f5f8481526020019081526020015f209050806008015f9054906101000a900460ff1661025d57826040517f425768480000000000000000000000000000000000000000000000000000000081526004016102549190611500565b60405180910390fd5b8060070154915050919050565b610272611047565b5f5f5f8481526020019081526020015f209050806008015f9054906101000a900460ff166102d757826040517f425768480000000000000000000000000000000000000000000000000000000081526004016102ce9190611500565b60405180910390fd5b805f016040518060c00160405290815f82015f9054906101000a900473ffffffffffffffffffffffffffffffffffffffff1673ffffffffffffffffffffffffffffffffffffffff1673ffffffffffffffffffffffffffffffffffffffff168152602001600182015f9054906101000a900473ffffffffffffffffffffffffffffffffffffffff1673ffffffffffffffffffffffffffffffffffffffff1673ffffffffffffffffffffffffffffffffffffffff168152602001600282015f9054906101000a900473ffffffffffffffffffffffffffffffffffffffff1673ffffffffffffffffffffffffffffffffffffffff1673ffffffffffffffffffffffffffffffffffffffff1681526020016003820154815260200160048201548152602001600582015481525050915050919050565b5f5f5f8581526020019081526020015f209050806008015f9054906101000a900460ff1661046e57836040517f425768480000000000000000000000000000000000000000000000000000000081526004016104659190611500565b60405180910390fd5b5f816006015f9054906101000a900460ff16905060028081111561049557610494611397565b5b8160028111156104a8576104a7611397565b5b036104ea57846040517f88dc57060000000000000000000000000000000000000000000000000000000081526004016104e19190611500565b60405180910390fd5b5f60028111156104fd576104fc611397565b5b8160028111156105105761050f611397565b5b0361052757610520828686610cd1565b5050610536565b61053382868686610e00565b50505b505050565b5f5f8381526020019081526020015f206008015f9054906101000a900460ff161561059d57816040517f1a31066d0000000000000000000000000000000000000000000000000000000081526004016105949190611500565b60405180910390fd5b6040518060800160405280828036038101906105b99190611642565b81526020015f60028111156105d1576105d0611397565b5b81526020015f8152602001600115158152505f5f8481526020019081526020015f205f820151815f015f820151815f015f6101000a81548173ffffffffffffffffffffffffffffffffffffffff021916908373ffffffffffffffffffffffffffffffffffffffff1602179055506020820151816001015f6101000a81548173ffffffffffffffffffffffffffffffffffffffff021916908373ffffffffffffffffffffffffffffffffffffffff1602179055506040820151816002015f6101000a81548173ffffffffffffffffffffffffffffffffffffffff021916908373ffffffffffffffffffffffffffffffffffffffff160217905550606082015181600301556080820151816004015560a0820151816005015550506020820151816006015f6101000a81548160ff0219169083600281111561071457610713611397565b5b0217905550604082015181600701556060820151816008015f6101000a81548160ff021916908315150217905550905050805f0160208101906107579190611339565b73ffffffffffffffffffffffffffffffffffffffff16827fabc07e5d65fed13232ad8275295c07cd672c5e88dfdb7a0ac3e59f0f88c5b82060405160405180910390a35050565b5f60015f8373ffffffffffffffffffffffffffffffffffffffff1673ffffffffffffffffffffffffffffffffffffffff1681526020019081526020015f205f9054906101000a900460ff169050919050565b5f5f5f5f8481526020019081526020015f209050806008015f9054906101000a900460ff1661085657826040517f4257684800000000000000000000000000000000000000000000000000000000815260040161084d9190611500565b60405180910390fd5b806006015f9054906101000a900460ff16915050919050565b5f7f0000000000000000000000000000000000000000000000000000000000000000905090565b5f5f5f5f8581526020019081526020015f209050806008015f9054906101000a900460ff166108fc57836040517f425768480000000000000000000000000000000000000000000000000000000081526004016108f39190611500565b60405180910390fd5b61090533610f70565b6109485783336040517f4132d42700000000000000000000000000000000000000000000000000000000815260040161093f92919061166d565b60405180910390fd5b5f816006015f9054906101000a900460ff169050600160028111156109705761096f611397565b5b81600281111561098357610982611397565b5b146109c75784816040517f3047d6bb0000000000000000000000000000000000000000000000000000000081526004016109be929190611694565b60405180910390fd5b612710841115610a105784846040517fa8ad6af4000000000000000000000000000000000000000000000000000000008152600401610a079291906116bb565b60405180910390fd5b5f826007015403610a5857846040517f8c353fe7000000000000000000000000000000000000000000000000000000008152600401610a4f9190611500565b60405180910390fd5b6002826006015f6101000a81548160ff02191690836002811115610a7f57610a7e611397565b5b0217905550610a92826007015485611018565b9250847f1bf0bd2ea7d73dbaf1d4efbf0aff853a94e85e95eb5b9cbeae6b26e04c8e942f8260025f8660070154604051610acf9493929190611724565b60405180910390a23373ffffffffffffffffffffffffffffffffffffffff16857ff40071a96dd2f7d667c3eb2136c9f236377383fd2dcda891f5b0d69477304d6d84600701548787604051610b2693929190611767565b60405180910390a3505092915050565b7f000000000000000000000000000000000000000000000000000000000000000073ffffffffffffffffffffffffffffffffffffffff163373ffffffffffffffffffffffffffffffffffffffff1614610bc657336040517f1ef1c704000000000000000000000000000000000000000000000000000000008152600401610bbd9190611432565b60405180910390fd5b5f73ffffffffffffffffffffffffffffffffffffffff168273ffffffffffffffffffffffffffffffffffffffff1603610c2b576040517f447924f600000000000000000000000000000000000000000000000000000000815260040160405180910390fd5b8060015f8473ffffffffffffffffffffffffffffffffffffffff1673ffffffffffffffffffffffffffffffffffffffff1681526020019081526020015f205f6101000a81548160ff0219169083151502179055508173ffffffffffffffffffffffffffffffffffffffff167f0b744422d82ac938eda36e0205a673742a8d6ad13b83abc15a759d09b4118fb082604051610cc5919061137e565b60405180910390a25050565b825f0160040154811015610d26578181845f01600401546040517fe21c661f000000000000000000000000000000000000000000000000000000008152600401610d1d9392919061179c565b60405180910390fd5b8083600701819055505f836007015403610d7757816040517f8c353fe7000000000000000000000000000000000000000000000000000000008152600401610d6e9190611500565b60405180910390fd5b5f836006015f9054906101000a900460ff1690506001846006015f6101000a81548160ff02191690836002811115610db257610db1611397565b5b0217905550827f1bf0bd2ea7d73dbaf1d4efbf0aff853a94e85e95eb5b9cbeae6b26e04c8e942f826001858860070154604051610df294939291906117d1565b60405180910390a250505050565b835f0160050154811015610e55578281855f01600501546040517f2a789e0e000000000000000000000000000000000000000000000000000000008152600401610e4c9392919061179c565b60405180910390fd5b80821015610e9e578282826040517f0a239e99000000000000000000000000000000000000000000000000000000008152600401610e959392919061179c565b60405180910390fd5b5f846007015403610ee657826040517f8c353fe7000000000000000000000000000000000000000000000000000000008152600401610edd9190611500565b60405180910390fd5b5f846006015f9054906101000a900460ff1690506002856006015f6101000a81548160ff02191690836002811115610f2157610f20611397565b5b0217905550837f1bf0bd2ea7d73dbaf1d4efbf0aff853a94e85e95eb5b9cbeae6b26e04c8e942f826002868960070154604051610f6194939291906117d1565b60405180910390a25050505050565b5f7f000000000000000000000000000000000000000000000000000000000000000073ffffffffffffffffffffffffffffffffffffffff168273ffffffffffffffffffffffffffffffffffffffff161480611011575060015f8373ffffffffffffffffffffffffffffffffffffffff1673ffffffffffffffffffffffffffffffffffffffff1681526020019081526020015f205f9054906101000a900460ff165b9050919050565b5f6127108261271061102a9190611841565b846110359190611874565b61103f91906118e2565b905092915050565b6040518060c001604052805f73ffffffffffffffffffffffffffffffffffffffff1681526020015f73ffffffffffffffffffffffffffffffffffffffff1681526020015f73ffffffffffffffffffffffffffffffffffffffff1681526020015f81526020015f81526020015f81525090565b5f604051905090565b5f5ffd5b5f819050919050565b6110d8816110c6565b81146110e2575f5ffd5b50565b5f813590506110f3816110cf565b92915050565b5f6020828403121561110e5761110d6110c2565b5b5f61111b848285016110e5565b91505092915050565b5f819050919050565b61113681611124565b82525050565b5f60208201905061114f5f83018461112d565b92915050565b5f73ffffffffffffffffffffffffffffffffffffffff82169050919050565b5f61117e82611155565b9050919050565b61118e81611174565b82525050565b61119d81611124565b82525050565b60c082015f8201516111b75f850182611185565b5060208201516111ca6020850182611185565b5060408201516111dd6040850182611185565b5060608201516111f06060850182611194565b5060808201516112036080850182611194565b5060a082015161121660a0850182611194565b50505050565b5f60c08201905061122f5f8301846111a3565b92915050565b61123e81611124565b8114611248575f5ffd5b50565b5f8135905061125981611235565b92915050565b5f5f5f60608486031215611276576112756110c2565b5b5f611283868287016110e5565b93505060206112948682870161124b565b92505060406112a58682870161124b565b9150509250925092565b5f5ffd5b5f60c082840312156112c8576112c76112af565b5b81905092915050565b5f5f60e083850312156112e7576112e66110c2565b5b5f6112f4858286016110e5565b9250506020611305858286016112b3565b9150509250929050565b61131881611174565b8114611322575f5ffd5b50565b5f813590506113338161130f565b92915050565b5f6020828403121561134e5761134d6110c2565b5b5f61135b84828501611325565b91505092915050565b5f8115159050919050565b61137881611364565b82525050565b5f6020820190506113915f83018461136f565b92915050565b7f4e487b71000000000000000000000000000000000000000000000000000000005f52602160045260245ffd5b600381106113d5576113d4611397565b5b50565b5f8190506113e5826113c4565b919050565b5f6113f4826113d8565b9050919050565b611404816113ea565b82525050565b5f60208201905061141d5f8301846113fb565b92915050565b61142c81611174565b82525050565b5f6020820190506114455f830184611423565b92915050565b5f5f60408385031215611461576114606110c2565b5b5f61146e858286016110e5565b925050602061147f8582860161124b565b9150509250929050565b61149281611364565b811461149c575f5ffd5b50565b5f813590506114ad81611489565b92915050565b5f5f604083850312156114c9576114c86110c2565b5b5f6114d685828601611325565b92505060206114e78582860161149f565b9150509250929050565b6114fa816110c6565b82525050565b5f6020820190506115135f8301846114f1565b92915050565b5f5ffd5b5f601f19601f8301169050919050565b7f4e487b71000000000000000000000000000000000000000000000000000000005f52604160045260245ffd5b6115638261151d565b810181811067ffffffffffffffff821117156115825761158161152d565b5b80604052505050565b5f6115946110b9565b90506115a0828261155a565b919050565b5f60c082840312156115ba576115b9611519565b5b6115c460c061158b565b90505f6115d384828501611325565b5f8301525060206115e684828501611325565b60208301525060406115fa84828501611325565b604083015250606061160e8482850161124b565b60608301525060806116228482850161124b565b60808301525060a06116368482850161124b565b60a08301525092915050565b5f60c08284031215611657576116566110c2565b5b5f611664848285016115a5565b91505092915050565b5f6040820190506116805f8301856114f1565b61168d6020830184611423565b9392505050565b5f6040820190506116a75f8301856114f1565b6116b460208301846113fb565b9392505050565b5f6040820190506116ce5f8301856114f1565b6116db602083018461112d565b9392505050565b5f819050919050565b5f819050919050565b5f61170e611709611704846116e2565b6116eb565b611124565b9050919050565b61171e816116f4565b82525050565b5f6080820190506117375f8301876113fb565b61174460208301866113fb565b6117516040830185611715565b61175e606083018461112d565b95945050505050565b5f60608201905061177a5f83018661112d565b611787602083018561112d565b611794604083018461112d565b949350505050565b5f6060820190506117af5f8301866114f1565b6117bc602083018561112d565b6117c9604083018461112d565b949350505050565b5f6080820190506117e45f8301876113fb565b6117f160208301866113fb565b6117fe604083018561112d565b61180b606083018461112d565b95945050505050565b7f4e487b71000000000000000000000000000000000000000000000000000000005f52601160045260245ffd5b5f61184b82611124565b915061185683611124565b925082820390508181111561186e5761186d611814565b5b92915050565b5f61187e82611124565b915061188983611124565b925082820261189781611124565b915082820484148315176118ae576118ad611814565b5b5092915050565b7f4e487b71000000000000000000000000000000000000000000000000000000005f52601260045260245ffd5b5f6118ec82611124565b91506118f783611124565b925082611907576119066118b5565b5b82820490509291505056fea26469706673582212200a4d7587c952a0142b0b63f868c76a096229fac411484c6124d62be84d10719764736f6c63430008210033","linkReferences":{}},"methodIdentifiers":{"emergencyForceClose(bytes32,uint256)":"a5a3dbe7","executeReactiveTrigger(bytes32,uint256,uint256)":"5c6dd2b0","getActualPositionSize(bytes32)":"032fdff9","getInvestmentIntent(bytes32)":"0d8c517e","getPositionState(bytes32)":"7c98636e","isEmergencyAuthorizedRelayer(address)":"5e1908fe","owner()":"8da5cb5b","registerInvestmentIntent(bytes32,(address,address,address,uint256,uint256,uint256))":"5d64006b","setEmergencyAuthorizedRelayer(address,bool)":"dc5d7e8d"},"id":0}